:020000040800F2
:10000000081C002011020008CD350008C930000886
:1000100031330008C72100087139000800000000D2
:10002000000000000000000000000000ED360008A5
:10003000CB21000800000000CF350008D7370008AA
:100040002B0200082B0200082B0200082B020008DC
:100050002B0200082B0200082B0200082B020008CC
:100060002B0200082B0200082B0200082B020008BC
:100070002B0200082B0200082B0200082B020008AC
:100080002B0200082B0200082B0200082B0200089C
:100090002B0200082B0200082B0200082B0200088C
:1000A0002B0200082B0200082B0200082B0200087C
:1000B0002B0200082B0200082B0200082B0200086C
:1000C0002B0200082B0200082B0200082B0200085C
:1000D0002B020008453900086D3900082B02000882
:1000E0002B0200082B0200082B0200082B0200083C
:1000F0002B0200082B0200082B0200082B0200082C
:100100002B0200082B0200082B0200082B0200081B
:100110002B0200082B0200082B0200082B0200080B
:100120002B0200082B0200082B0200082B020008FB
:1001300000F002F800F05DF80AA090E8000C82449C
:100140008344AAF10107DA4501D100F052F8AFF279
:10015000090EBAE80F0013F0010F18BFFB1A43F0A5
:10016000010318470C6D00002C6D0000103A24BFED
:1001700078C878C1FAD8520724BF30C830C144BF0C
:1001800004680C607047000000230024002500264E
:10019000103A28BF78C1FBD8520728BF30C148BFEA
:1001A0000B607047662906F0E084642900F0CA807D
:1001B000752900F0C780632900F02585732900F0B8
:1001C0002A85002070471FB59DE8030000F026FA3D
:1001D00000F08CFD04000020002106F0A1F8401C76
:1001E00060600020002106F085F8E0601FBD10B5BA
:1001F00010BD00F0C4FE1146FFF7E5FF05F03AFB25
:1002000001F03CF903B4FFF7F2FF03BC03F050FC2C
:100210000948804709480047FEE7FEE7FEE7FEE79A
:10022000FEE7FEE7FEE7FEE7FEE7FEE704480549D6
:10023000054A064B704700004538000831010008A8
:1002400008160020081C00200818002008180020AC
:10025000704770B5064600F0C5F9056806F10B0059
:1002600020F00704B4429CBF002070BD2B466A6892
:10027000BAB11068A04210D304F1080188423CBF13
:100280005068586007D35168101941601168091B04
:10029000016058601460101D70BD13465268002A3A
:1002A000E7D12146284600F0A5F90028DED170BD2F
:1002B0000FB4044910B503AA029800F0B1FC10BCB9
:1002C0005DF814FB000000200FB41CB5074B06AA14
:1002D0007B4469460090059800F073FC0020694655
:1002E00000F082FC1CBC5DF814FB00001509000046
:1002F00070B50C460546012A05D02878800600D541
:10030000EA69002302E0012305E05B1C934202D26C
:10031000E05C0028F9D1A869E618C01AA861286A2B
:10032000184428622846AFF3008004E0D5E9012193
:1003300014F8010B9047B442F8D32846AFF300807D
:1003400070BD00002DE9F0410646002410687529B3
:10035000314616A510D0AFF30080002802DA4042E3
:1003600013A507E031688A0701D512A502E0490705
:1003700004D511A5012401E0AFF3008000210A2279
:1003800006F1240709E0B0FBF2FCB0FBF2F302FB3C
:100390001C00303078541846491C0028F3D12346FD
:1003A0002A463046BDE8F04100F0A0B90000000048
:1003B0002D0000002B000000200000002DE9F04778
:1003C0004FF0000A89460446C0F820A02046E168A4
:1003D0008847002876D0252806D0D4E90121904707
:1003E000206A401C2062F1E7E1682046002588472A
:1003F000C4F81CA006460027C4F818A02A2E09D06D
:10040000304603F04EFB38B304EB8708303EC8F8A3
:10041000186019E059F8041B204604EB870291612B
:10042000E1688847012F064618D1E069002820DAE4
:1004300025F020051DE0D8F8180000EB800006EB41
:1004400040003038C8F818002046E1688847064662
:1004500003F027FB0028EED1012F0AD02E2E08D161
:100460002046E16888477F1C0646022F45F020059C
:10047000C4DBA069002803DA404245F00105A06111
:10048000E80701D025F01005B6B1A6F14100192802
:1004900002D8203645F400654A463146204625609C
:1004A0004D46FFF77FFE58B1012806D0ED1D25F01F
:1004B000070000F1080989E704E005F1040985E770
:1004C00030468AE7206ABDE8F0874FF00002042931
:1004D000C0F0128010F0030C00F01B80CCF1040C73
:1004E000BCF1020F18BF00F8012BA8BF20F8022BA7
:1004F000A1EB0C0100F00DB85FEAC17C24BF00F84D
:10050000012B00F8012B48BF00F8012B70474FF07A
:10051000000200B5134694469646203922BFA0E853
:100520000C50A0E80C50B1F12001BFF4F7AF09075F
:1005300028BFA0E80C5048BF0CC05DF804EB890050
:1005400028BF40F8042B08BF704748BF20F8022B93
:1005500011F0804F18BF00F8012B70474FF0013C9D
:1005600050F8042B51F8043B9A4221D1A2EB0C0322
:10057000934313EACC1317D150F8042B51F8043BE2
:100580009A4215D1A2EB0C03934313EACC130BD17F
:1005900050F8042B51F8043B9A4209D1A2EB0C030A
:1005A000934313EACC13DBD04FF00000704700BF39
:1005B000D01A01BAB1FA81F101F0180122FA01F062
:1005C000CB40C1F12001DBB2C0B2C01A2CFA01F35A
:1005D000D11A914311EAC311E6D1704770477047B1
:1005E0007047704700487047B0150020704770474B
:1005F0007047704738B504460A4600206946AFF395
:100600000080002808BF38BD02460099204600F04F
:1006100075FB012038BD012000F0AABCF8B5AFF38E
:100620000080054600200C46102000BF0646A81991
:10063000A0420DD9324669460020AFF30080070082
:1006400008BF00F095FC0098A04218BF0546C419E9
:10065000FFF7C8FF05600746F01D20F007004619A8
:10066000284600F00AF8B44208BFF8BDA21B314684
:100670003868BDE8F84000F041BB00210160C0E9E6
:10068000011070471020704770B50446051FFFF732
:10069000A9FF0068002C14BF446870BD002C18BF6F
:1006A000AC423CBF20466468F8D301680A18AA42ED
:1006B00018BF456003D12A680546114401602868C7
:1006C0004119A1421CBF6C6070BD616869602168FE
:1006D0000844286070BD10B500F00CFB006810BD28
:1006E00010B5044600F006FB046010BD2DE9F0478C
:1006F0000D4699469246044600F124080168880692
:1007000004D5E06921F01001216000E00120A84239
:1007100001DD471B00E00027A1697A1902EB0900FF
:10072000081AA0612078C00602D42046AFF30080EA
:10073000002608E0D4E901211AF806009047206A53
:10074000401C761C20624E45F4DB2078C0060AD59A
:100750002046AFF3008006E0D4E901213020904725
:10076000206A401C2062381EA7F10107F4DC07E074
:10077000D4E9012118F805009047206A401C206246
:10078000281EA5F10105F3DC2046AFF30080207898
:10079000000602D50220BDE8F0870120FBE7704784
:1007A0002DE9FF4F0C461E464FF0FF378BB0D2E9C4
:1007B0000001DDF860800A908A46C1F30A5505B948
:1007C0003D46002108464FF00000BAF1000F00F44A
:1007D000400005DA00EB80004FF4400101EA5000D0
:1007E0004FEA9059B9F1010F00DDB9460A9850EA75
:1007F0004A000ED044F61050A5F2FF3545432F14A1
:10080000B8F1000F1ED07542291E1EDDC9F100028D
:100810001CE0B8F1010F4FF0000001D0302103E0DF
:10082000F24305E02154401CB042FBDB304600227D
:10083000002121540B99C1F80880C1E900200FB0B4
:10084000BDE8F08FBD1B6D1CDEE74A4600DA694249
:1008500006A800F01BFB06AB93E8070003AB83E898
:10086000070050460A9901F0A0F88DE80700A0F5AE
:1008700000501F3800900398002D09DD42F21F013F
:100880004A46084403A90390684601F02AFB08E0A1
:10089000A0F500504A461F3803A90390684601F0AE
:1008A00048FB8DE807000004000C03D04FF0FF3038
:1008B000410800E01046B8F1000F03D0002200927A
:1008C00015461EE0751E05D400F032FA303262552E
:1008D0006D1EF9D5B3460122084302D000227F1CC9
:1008E00004E02078302801D100227F1E002A0997D9
:1008F00086D01DE0112D07DA00F01AFA3032625569
:100900006D1C50EA0102F5D1084302D00098C8B12D
:100910000EE00021681E05E0235C625C63542254F3
:10092000401E491C8142F7DBAB46A81B401E0990C4
:10093000002004F80B000B98099AC0F80880C0E961
:10094000002B7CE711264FF0000859E72DE9F04F06
:1009500088460446D21D22F0070191B0D1E900017A
:10096000CDE90A0103F006F802460B98C00F01D04A
:100970002D2007E02068810701D52B2002E02021EF
:1009800001EAC000032A099001D0072A05DB0346CB
:100990004146204600F01AFA0BE12078800601D586
:1009A000E06900E00620B8F1650F814606D0B8F195
:1009B000660F18D0B8F1670F70D131E00020B9F19F
:1009C000110F009001DB112301E009F101030AAAD4
:1009D00001A90CA8FFF7E4FEDDE90C70002609F17F
:1009E0000105834647E001204B4600904FF0004749
:1009F0000AAA01A90CA8FFF7D3FEDDE90DB00C99F6
:100A00005D46002610B909F101000D18B9EB05008B
:100A100003D4C0F1FF3609F10105A5EB09002BE075
:100A2000B9F1010F01DA4FF001090020B9F1110FFE
:100A30000090484601DD112300E003460AAA01A9FF
:100A40000CA8FFF7ADFEDDE90C704D46002683468D
:100A5000207800070AD4AB4500DA5D4601A8012DD5
:100A600004DD411911F8011C302907D04F4502DA85
:100A700017F1040F04DA012082460FE06D1EEEE745
:100A8000002F02DCED1B3E4403E0781CA84200DD91
:100A90007D1CB81B00F1010A4FF0004720780007C9
:100AA00003D4AA4501DB4FF0FF3A0021B7F1004F14
:100AB0000DF143088DF8431024D002202B23002F82
:100AC00001DA7F422D230A21021EA0F1010000DC81
:100AD0005FB197FBF1FC97FBF1F201FB1C7C174621
:100AE0000CF1300C08F801CDEEE7A8F1010003701D
:100AF0002188090501D5452100E06521A0F1010803
:100B000000F8011C09980FA9A1EB0807FF1D00B10F
:100B10000120411901EBEA70A1693844081A401E0E
:100B2000A0612078C00602D42046AFF30080099867
:100B300028B1D4E901219047206A401C2062207826
:100B4000C00622D52046AFF300801EE0002E04DB55
:100B5000B34502DD01A8805D00E03020D4E9012129
:100B60009047206A401C2062761CAAF101005FEACF
:100B7000000A0AD100F0BAF8C0680168405CD4E904
:100B800001219047206A401C2062281EA5F1010522
:100B9000DCDC07E0D4E9012118F8010B9047206A5A
:100BA000401C2062381EA7F10107F3DC2046AFF39A
:100BB0000080032011B043E601694A1C02610878F5
:100BC000704700B58FB0CDE901310021059105498D
:100BD0007944CDE9031011466846FFF7EFFB0FB0EB
:100BE00000BD0000E5FFFFFF0A6802F8010B0A6084
:100BF000704710B5436913B1AFF3008001E0FFF710
:100C000077FB012010BD127800F124010A70002248
:100C10004A700122EDE711684FF0FF32E9E700006A
:100C2000074B70B50D467B44FFF7CBFF04462846C3
:100C300000F09AF910B14FF0FF3070BD204670BD42
:100C40009B4200000FB4002300B589B00CA90091AD
:100C50000B99CB60204B7B440693204B7B4407933E
:100C600004236FF00042CDE901321D4A7A446B46FD
:100C700008920246002005F0DAFF09B05DF814FB87
:100C800070B506464FF0FF3015460C46324686B02A
:100C90000091CDE9010169460020049004A8FFF706
:100CA000D1FF03460498211825B108B10A4600E097
:100CB00022462A6000280DD0002B02DD00988842D1
:100CC00008D03246081B69460094CDE9010404A807
:100CD000FFF7B8FF06B070BDF30100000B02000083
:100CE0004B01000000487047A815002000487047DD
:100CF000C815002000487047A8150020034640682A
:100D00008C46002818BF88423CBF03464068F8D391
:100D100018681844884207D00CF1030020F007003F
:100D2000001D411A521A0146081D0A60FFF7ACBCAB
:100D300030B5B0F10A024FEA900E71F100034EEAAD
:100D4000817EB0EB0E0061EB91014FEA101E4EEA7E
:100D5000017E10EB0E0041EB11114FEA102E4EEA0E
:100D6000016E10EB0E0041EB11214FEA104E4EEADE
:100D7000014E10EB0E0041EB1141401841F1000112
:100D80004FEAD00040EA41704FEAD10110EB8005F4
:100D90004FEA810444EA907444EB01046D1944EB7A
:100DA0000404521BA3414FF0000348BF0A3200D590
:100DB00030BD401C41F1000130BD10B5044600F0CB
:100DC00003F90068005D00F0010010BD2DE9F0415D
:100DD0001F46044603260168072A01F4006004DB6D
:100DE00008B116A505E016A503E008B115A500E0B9
:100DF00015A521F010002060A069C01EA0610FB1F0
:100E0000401EA0612046AFF300804FB1D4E901211C
:100E100038469047206A401C2062C01C206206E0D1
:100E2000206AFAE7D4E9012115F8010B9047761EF4
:100E3000F8D22046AFF30080BDE8F0814E414E006D
:100E40006E616E00494E4600696E6600426842B1AE
:100E5000016811F8013B23B1521EC0E90012184687
:100E600070470121C160881E704742685AB1C3684B
:100E7000016843B983688B4205D0491E521CC0E902
:100E80000012002070474FF0FF3070472DE9F04707
:100E9000814616468AB0334878440DC88DE80D0067
:100EA00030487844801C03AC0DC884E80D0041F63E
:100EB0009B300844372190FBF1F290FBF1F5A5F14E
:100EC000800501FB12041B3C02D56442012000E0B6
:100ED0000020DFF890A080460027FA44AAF1BE0A5D
:100EE0000DE0E00709D03246684607EB47010AEB00
:100EF000810101F01EF88DE8070064107F1C002CB2
:100F0000EFD1184F7F44AC3F18E0E80714D007EB4F
:100F100004100DF1180A90E80E008AE80E00C0686F
:100F2000F04201D198190890324606A903A801F0B1
:100F300000F803AB83E807006D10641C002DE4D1BA
:100F400032466946B8F1000F03A802D000F0C9FF8D
:100F500001E000F0EEFFC9E90001C9F808200AB07D
:100F6000BDE8F087145F0000007B00F08000704750
:100F700010B500F091FABDE8104000F088BA75464F
:100F8000FFF7B0FEAE4605006946534620F0070065
:100F9000854618B020B5FFF749F9BDE820404FF06D
:100FA00000064FF000074FF000084FF0000B21F053
:100FB0000701AC46ACE8C009ACE8C009ACE8C00920
:100FC000ACE8C0098D46704710B5FFF78FFE001DD5
:100FD00010BD00BF4D5300002DE9FF4F064689B0FC
:100FE0000878FF2806D0491C2D2805D000244FF092
:100FF000000908E000200CE00124F8E709EB890370
:10100000491C00EB43090878FF28F7D114B1C9F156
:1010100000008146107800252C46AA4629462D2836
:1010200001D02B2804D1521C2D2813D00020824639
:101030008B461078FF280FD04FF0000C0A21521C6D
:10104000A5FB017804FB018105FB0C11C5194BEBD5
:101050000104EEE70120EAE7002108464FF0000016
:10106000BAF1000F02D000EB80004008C0F38158B5
:10107000B8F1010F01DD4FF0FF380C9809EB0007C4
:1010800055EA040009D04FF0020917F5FA7F0BDA90
:101090004FEACA70C6E900B012E04FEACA70C6E96A
:1010A00000B00DB0BDE8F08FB7F5FA7F0DDDF04868
:1010B0007844D0E90010C6E9001040EACA707060B8
:1010C000FFF718FEC0F80090EBE7391E02DAC8F10E
:1010D000000200E0424600DA794206A8FFF7D6FE99
:1010E00006AB93E8070003AB83E8070044F23E0039
:1010F0005BEA04010090584604D144F21E012C46DC
:101100005D460091210C0904014306D10099240495
:1011100044EA15442D041039009104F07F41014345
:1011200006D10099240244EA15642D020839009181
:1011300004F07041014306D10099240144EA15747A
:101140002D01091F009104F04041014306D100998F
:10115000A40044EA9574AD00891E009104F000419A
:10116000084304D100986D196441401E0090424626
:101170006846002FCDE9014503A902DD00F0EDFE30
:1011800001E000F0C2FEBAF1000F04460D4601D0A6
:1011900084F0004440F2FF7724F00040284303D05D
:1011A000C4F30A50B84212D1FFF7A4FDC0F8009072
:1011B000C4F30A50B8420AD1AE487844D0E90010CE
:1011C000C6E9001004F000410843706069E7C6E911
:1011D000005466E72DE9FF4F1F464FF0000A4FF01D
:1011E000FF38454691B0D7E90146CDF83CA0FFF75E
:1011F0007DFDC0680168405C1090B96912986D1C53
:101200008847396A814688470028F6D1B9F1FF3FFF
:101210000AD0002E24F4D06411DDB9F12B0F08D0D0
:10122000B9F12D0F0BD102E0404615B03AE744F476
:101230008064B96912986D1C8847761E81466005E6
:1012400004A901D52D2000E02B20002E01F1010B77
:101250000DF130088DF810003FDDB9F1690F08D0AD
:10126000B9F1490F05D0B9F16E0F02D0B9F14E0FA7
:101270001CD13B4601A8009580E85002DDE912121E
:101280006FF0020005F0D7FCC11CCED10EE0B969A9
:1012900012986D1C884781461398761E44F400749A
:1012A00005600F98401C002E0F9016DDB9F1300F2D
:1012B000EDD0B9F1780F02D0B9F1580F0DD10F98D8
:1012C00001280AD13B46CDE90054DDE91212001F86
:1012D000029605F0AEFCC11CA7D1109989453ED1FC
:1012E00044F0800406E01399681CAAF1010A44F452
:1012F00000740860B9696D1C1298761E8847302802
:101300008146F0D02BE01099894505D1200603D401
:10131000761E44F0800418E0484602F0C2FB08B391
:10132000761E0DF123018B4544F4007408D2A9F117
:1013300030000BF8010B200607D5AAF1010003E0ED
:10134000200602D40AF101008246A00502D51399B5
:10135000681C0860B96912986D1C88478146002E88
:10136000D1DC53E0002E51DDB9F1650F02D0B9F1A7
:10137000450F4BD1A00549D5B9696D1C1298761E51
:1013800024F440748847002E81460CDD2B2804D0BD
:10139000B9F12D0F07D144F48074B96912986D1C0E
:1013A0008847761E8146E00501D52D2100E02B21DE
:1013B00008F8011BCDF8008021E0761E0DF13901FF
:1013C000884544F400740CD2A9F1300010F0FF00FD
:1013D00088F8000002D10099884509D908F1010870
:1013E00006E0E00501D5244801E042F20F70824694
:1013F000B96912986D1C8847814613980560002EC4
:1014000004DD484602F04DFB0028D6D1F969129858
:101410008847FF2053468BF8000088F80000002022
:101420000A900B9004AA0CA90AA8FFF7D5FDA00505
:1014300002D46FF00100F8E614F0240F0AD0E007A0
:1014400014D13868DDE90A12031D3B600068C0E969
:1014500000120BE00AA9684602F0CCFAE00705D1B9
:101460003868009A011D3960006802602846DCE691
:10147000DC5D0000D25C0000F1D8FFFF10B504462F
:10148000AFF300802046BDE81040FEF7BBBE002849
:1014900001D002F00DBB704710B5012805D0002126
:1014A00003A000F021F8012010BD09A1F8E7000019
:1014B00053494752544D454D3A204F7574206F663D
:1014C0002068656170206D656D6F727900000000A5
:1014D0003A2048656170206D656D6F727920636F89
:1014E000727275707465640070B505460C460A200A
:1014F00000E06D1C02F0DEFA35B128780028F8D142
:1015000002E0641C02F0D6FA14B120780028F8D169
:10151000BDE870400A2002F0CDBA00002DE9FF4F6F
:101520001F464FF03C0987B04FF00042DDE9141030
:1015300001F10108DDF858A002EA405003900020B4
:1015400004908346054604460590B969461E0898EE
:101550008847AAF1010A0290BAF1000F37DD02981C
:101560002E2815D0102100F012FA00282ADB4FF0A7
:10157000010B0499014316D0B9F1000F0BDB4A4669
:10158000C11700F0F1F905430C43A9F1040905E086
:101590000120059007E008B145F001050120049005
:1015A000059800B9361DB969089808F101088847FF
:1015B000BBF1000FAAF1010A0290CDD00999C1F840
:1015C0000080C9E70298702808D0502806D0F96931
:1015D00008988847BBF1000F14D04FE0002002901C
:1015E0000120BBF1000F049009D0B969089808F1F7
:1015F00001088847AAF10109B9F1000F07DCF96970
:10160000089888476FF001000BB0BDE8F08F2B28D9
:1016100004D02D280CD14FF0FF300490B969089800
:1016200008F101088847A9F10109B9F1000FE6DDC9
:10163000411CE4D00A2100F0AAF90028DFDB02995E
:1016400008F1010801EB810100EB41000290B9694A
:10165000089888470A2100F09AF9099AA9F1010926
:10166000B9F1000FC2F8008001DD0028E7DAF9695E
:10167000089888470499029800FB016655EA04001F
:1016800004D004F04041090002D006E0039898E03D
:10169000A40044EA9574AD00B61E04F000410800B1
:1016A00002D16D196441761E159810F0240F03D0F5
:1016B0004FF00B095C4803E04FF028096FF07D0004
:1016C0008246564507DAAAEB06018944B9F1410F73
:1016D00001DD4FF0410901200021A9F1010200F0D4
:1016E00043F9024628400B462140084301D001211E
:1016F00000E00021501E029143F1FF3128402140BB
:10170000084301D0012000E000200299834651EAFD
:101710000B014FD0002108464FF00000039900F460
:10172000400039B100EB80004FF4400100EBD07075
:1017300001EA60008015012802DD4FF0FF3000E073
:1017400013D0401C36D0029860B3BBF1000F0CD10F
:101750004A460120002100F007F9284021400843B3
:1017600001D0012000E00020E0B101204A46002124
:1017700000F0FAF8034640190A4661412D1A8C41DF
:1017800011D3B9F1400F09DD159810F0240F02D0E4
:10179000AAF1340603E0AAF1170600E0761C002542
:1017A0004FF0004406E05B1E42F1FF3220EA0305E1
:1017B00021EA0204CAF10100B04206DA1B4903988B
:1017C00008430190002000900EE0039AC4F3D32157
:1017D000E80A0A43164940EA44500A433146CDE933
:1017E0000002684602F052F9159810F0240F0BD051
:1017F0001598C00715D13868DDE90012031D3B605C
:101800000068C0E900120CE002A8694602F0F2F894
:101810001598C00705D13868029A011D3960006823
:1018200002604046F0E6000002FCFFFF0000F07F8F
:101830000000F03F2DE9FF4F92461D4685B04FF066
:101840000041DDE9124BDDE914727F1E01EA4B50C5
:10185000414940F0FF4940EA0108002122F0200000
:101860004928049102D04E2828D04CE03BA0012604
:1018700007C88DE80700A9690698641C88477F1E81
:10188000014606D41DF8060018B121F0200181425E
:101890000BD0E96906988847032E34D0082E32D041
:1018A0006FF0010009B0BDE8F08F761C032E01D067
:1018B000082EE0D1601CCAF80000DCE7A969069890
:1018C000641C88477F1E2AD420F02000412826D19E
:1018D000A9690698641C88477F1E20D420F0200048
:1018E0004E281CD1A9690698641C88477F1E48F4BD
:1018F000002849F48009CAF8004001D4282806D0FD
:10190000E969069888475FEACB7012D022E0A9699E
:101910000698641C88477F1E01D4002803DAE96911
:1019200006988847BCE72928F1D1641CCAF8004012
:10193000E9E71BF0240F07D028680499031D2B60EA
:101940000068C0E9001805E02868021D2A600068E8
:10195000C0F800902046A5E70000F07F494E4649B8
:101960004E49545900000000B2F120030AD5C2F1DB
:10197000200301FA02F120FA03F300FA02F041EA2F
:101980000301704700FA03F14FF0000070473A2856
:1019900000D2303820F02002412A01D3A2F13700D2
:1019A000884201D34FF0FF3070475FEA400C08BF18
:1019B00091F0000F4FEA8C234FEAC12243EA5151C4
:1019C0004FEA1C5018BF00F5F0404FEA300018BF36
:1019D00041F000415FEA6C5C00F02980BCF1FF3F00
:1019E00008BF40F080407047130C06BF12044FF050
:1019F000100C4FF0000C130E04BF12020CF1080C77
:101A0000130F04BF12010CF1040C930F04BF9200DA
:101A10000CF1020CD30F04BF52000CF1010C114663
:101A20004FF00002A0F11F00A0EB0C00704711F076
:101A3000004F08BF704731F000413FF4D5AF0B0CA9
:101A400006BF09044FF0100C4FF0000C0B0E04BF42
:101A500009020CF1080C0B0F04BF09010CF1040C76
:101A60008B0F04BF89000CF1020CCB0F04BF49009F
:101A70000CF1010CCCF12003A0EB0C0022FA03F3D3
:101A800002FA0CF241EA030100F10100704720F074
:101A90007F4C80EA030023F07F47ACEB070303F59C
:101AA0007C5300F0004003F1FF032DE980494FEA29
:101AB000154B09B44FEA144325EA0B4E24EA0348B8
:101AC0000FF2042606EB132749083E785FEA32023C
:101AD00003FB0667C7F5000707FB06F64FEA543716
:101AE0004FEAD64606F1020607FB066CCCF1005C15
:101AF0004FEA1C472CEA074C07FB06F40CFB06F5E3
:101B000004EB15464FEA961634BF00204FF0004014
:101B10004FEAD13706FB07FC4FEA1C4C0CFB0BF7D6
:101B2000D21B03FB0CF761EB07010CFB0EF7B0EBCC
:101B3000074072EB17420CFB08F734BFA2EB0742D9
:101B4000B2EB074261EB17414FEA0C444FEA9107B1
:101B500006FB07FC4FEA1C4C0CFB0BF7B0EBC74035
:101B600072EB573203FB0CF734BFA2EBC742B2EB68
:101B7000C74261EB57310CFB0EF7B0EBC70072EBBD
:101B800057720CFB08F734BFA2EBC702B2EBC702D7
:101B900061EB5771039F4FEA816141EA921104EBB7
:101BA000CC044FEAD1374FEA826206FB07FC42EAD7
:101BB00090124FEA80604FEA1C4C0CFB0BF7D21BD3
:101BC00003FB0CF761EB07010CFB0EF7B0EB0740D2
:101BD00072EB17420CFB08F734BFA2EB0742B2EBE3
:101BE000074261EB17414FEA8C554FEA910704EB2E
:101BF0009C2406FB07FC4FEA1C4C0CFB0BF7B0EBDC
:101C0000C74072EB573203FB0CF734BFA2EBC7425D
:101C1000B2EBC74261EB57310CFB0EF7B0EBC700DC
:101C200072EB57720CFB08F734BFA2EBC702B2EBA2
:101C3000C70261EB577115EB4C254FEA816141EA10
:101C400092114FEA82624FEAD13742EA901206FBC4
:101C500007FC44F100044FEA80604FEA1C4C0CFB87
:101C60000BF7D21B03FB0CF761EB07010CFB0EF724
:101C7000B0EB074072EB17420CFB08F734BFA2EB46
:101C80000742B2EB074261EB174115EB1C154FEA17
:101C9000813141EA92414FEA823242EA90424FEA70
:101CA00080304FEA0C7644F1000448EA03434EEAE0
:101CB0000B484FF0000EB2EB080C71EB030724BF8A
:101CC000624639464EEB0E0E4FF0000B00185241A3
:101CD00049414BEB0B0BB2EB080C71EB03077BF1AB
:101CE000000B24BF624639464EEB0E0E4FF0000B40
:101CF0000018524149414BEB0B0BB2EB080C71EB56
:101D000003077BF1000B24BF624639464EEB0E0EF3
:101D100051EA020718BF46F0010616EB0E7655F1A0
:101D2000000254F1000103D5BDE88901BDE8008837
:101D3000BDE88901BDE80048B619524141EB0101F7
:101D4000A3F10103704780807F7E7D7C7B7A797868
:101D5000777676757473727171706F6E6E6D6C6C70
:101D60006B6A6A6968686766666564646363626112
:101D70006160605F5F5E5E5D5D5C5C5B5B5A5A5993
:101D800059585857575656555555545453535252FF
:101D90005251515050504F4F4F4E4E4D4D4D4C4C57
:101DA0004C4B4B4B4A4A4A494949484848474747A0
:101DB00047464646454545444444444343434342DD
:101DC000424242414141000046EA0646A3F57053B3
:101DD0004FEA164646EA42564FEAD22242EA4152BA
:101DE00010B54FEAD121A3F1010300F017F820F05C
:101DF000004000F1010C00F0004701EB00501146DB
:101E0000BCF5006F40EA070000D210BD02484FF059
:101E1000000140EA070010BD0000F07F002B26D42F
:101E2000770021D01CB54FEA370703B44FF01000FC
:101E30004FF010014FF000000FBCBDE810400BF157
:101E4000010BBBF1010F08BF5FEA170722BF12F1B8
:101E5000010211F101014FF0004143F1000300F0D4
:101E6000004043EA00007047F9D35708DAE746EA32
:101E7000064613F1400F4FEA16461FDD13F1200FFF
:101E8000DFBF16430A46002120335B42C8D0C3F1AE
:101E9000200746EA064602FA07F74FEA164646EAE0
:101EA0000706C3F1200722FA03F201FA07F721FA25
:101EB00003F14FF0000342EA0702B1E746EA0206E7
:101EC00046EA06464FEA164646EA0106BCBF46EA1F
:101ED0000646360C4FF000034FF000024FF00001B1
:101EE0009EE72DE9C048934630B491E8380007C812
:101EF00031EA400C48BF34EA430C03D5FFF7C7FD75
:101F0000FFF78CFFF0BCBDE800882DE9C048934680
:101F100030B491E8380007C831EA400C48BF34EAD1
:101F2000430C03D5FFF7B3FDFFF74EFFF0BCBDE850
:101F300000882DE9C048934630B491E8380007C8BE
:101F400010F0804F08BF13F0804F03D100F019F854
:101F5000FFF764FFF0BCBDE800882DE9C048934658
:101F600030B491E8380007C810F0804F08BF13F074
:101F7000804F03D100F005F8FFF726FFF0BCBDE865
:101F8000008820F07F4780EA030023F07F4C07EBB6
:101F90000C03A3F57C5300F00040A3F1FE0392F084
:101FA000000F00F0B38095F0000F00F077802DE96E
:101FB00001494FEA11404FEA144621EA004800FB6C
:101FC00006FC24EA064708FB06F607FB08F800FBB8
:101FD00007F718EB06484CEB164C4FEA124B18EB80
:101FE00007484FEA15464CEB174022EA0B4E0BFB15
:101FF00006FC25EA06470EFB06F607FB0EFE0BFB6A
:1020000007F71EEB064E4CEB164C4FF000061EEB8E
:10201000074E4CEB174B18EB0B0840F1000018EB88
:102020000E0B58EB000840F100008F1A4FF0000132
:102030003CBFC943661B14BFB5EB040C00213CBF79
:10204000C943F61B4FEA17444EEA8E0E27EA0445B1
:102050004FEA1C4704FB07622CEA074C05FB07F715
:102060000CFB05F604FB0CFC16EB074642EB174293
:1020700016EB0C4642EB1C421BEB060658EB020229
:10208000414146EA9E0601D5BDE80189B619524193
:1020900041EB0101A3F10103BDE801894FEA1445B9
:1020A0004FEA114724EA054621EA074C05FB07F4ED
:1020B00006FB07F70CFB06F105FB0CFC11EB0741D7
:1020C00044EB17444FEA124711EB0C4144EB1C441C
:1020D00022EA074C05FB07F206FB07F70CFB06F6A6
:1020E00005FB0CFC16EB074642EB174216EB0C46C1
:1020F00042EB1C456A1854F1000148BF7047B619FD
:10210000524141EB0101A3F10103704795F0000F2B
:1021100037D04FEA11424FEA144721EA024624EA37
:10212000074C02FB07F106FB07F70CFB06F402FB6A
:102130000CFC14EB074441EB17414FEA154714EB35
:102140000C4441EB1C4125EA074C02FB07F506FB5A
:1021500007F70CFB06F602FB0CFC16EB074645EBFB
:10216000174516EB0C4645EB1C42121951F10001C4
:1021700048BF7047B619524141EB0101A3F1010379
:1021800070474FEA14454FEA114724EA054621EA11
:10219000074C05FB07F106FB07F70CFB06F24FF0B7
:1021A000000605FB0CFC12EB074241EB174112EB5A
:1021B0000C4251EB1C4148BF7047921841EB0101A2
:1021C000A3F10103704700BFFEE77047704770B589
:1021D00004460D46EE2001F08BFAB12001F088FA9A
:1021E000112001F085FA200A01F082FAE0B201F034
:1021F0007FFA280A01F07CFAE8B201F079FAFF20B0
:1022000001F076FAFC2001F073FAFF2001F070FA79
:10221000FF2001F06DFA70BD2DE9F04104460D4636
:1022200017469846069EEE2001F062FAB12001F0B2
:102230005FFA322001F05CFA200A01F059FAE0B2AC
:1022400001F056FA280A01F053FAE8B201F050FA08
:10225000F8B201F04DFA300A01F04AFAF0B201F09A
:1022600047FA3146404601F057FAFF2001F040FAA4
:10227000FC2001F03DFAFF2001F03AFAFF2001F0C6
:1022800037FABDE8F081000070B5044600F0BEF9F1
:1022900006462546681C10B104480078054400BF76
:1022A00000F0B4F9801BA842FAD370BD0C000020E6
:1022B0002DE9F847024600239C467BE14FF00108D8
:1022C00008FA03F4D1F8008008EA0400A0427DD1A6
:1022D000DFF8F4A2D1F80480A8EB0A09D0453AD07F
:1022E00014DCB8F1030F50D009DCB8F1000F31D085
:1022F000B8F1010F1CD0B8F1020F49D120E0B8F1BC
:10230000110F18D0B8F1120F42D11EE0B9F5881F95
:1023100025D006DCB9F5803F20D0B9F5801F37D134
:102320001AE0B9F5001F18D0B9F5041F30D117E035
:10233000D1F80CC02DE0D1F80C8008F1040C28E095
:10234000D1F80C8008F1080C23E0D1F80C8008F1DA
:102350000C0C1EE000BF00BF00BF00BF00BF00BFED
:10236000D1F80880B8F1000F02D14FF0040C0BE057
:10237000D1F80880B8F1010F03D14FF0080C1461B7
:1023800002E04FF0080C546103E04FF0000C00E055
:1023900000BF00BFFF2801D8904601E002F1040809
:1023A0004646FF2802D84FEA830803E0A3F1080855
:1023B0004FEA88084746D6F800804FF00F0909FA1F
:1023C00007F928EA09080CFA07F900E07AE048EA78
:1023D0000908C6F80080D1F8048008F08058B8F1E8
:1023E000805F6FD100BFDFF8E481D8F8188048F033
:1023F0000108DFF8D891C9F81880C846D8F81880C5
:1024000008F00108CDF8008000BF00BF4FEAB938DE
:102410004FEA930958F829504FEA83784FEA187920
:102420004FF00F0808FA09F825EA0805DFF8A0813F
:10243000424502D14FF0000824E0DFF89881424580
:1024400002D14FF001081DE0DFF88C81424502D136
:102450004FF0020816E0DFF88481424502D14FF0C8
:1024600003080FE0DFF87881424502D14FF00408FD
:1024700008E0DFF87081424502D14FF0050801E025
:102480004FF006084FEA83794FEA197908FA09F8FC
:1024900048EA0505DFF850814FEA930948F82950CA
:1024A000D1F8048008F48038B8F5803F0BD1DFF80C
:1024B0003C81D8F8008048EA0008DFF83091C9F87C
:1024C00000800AE075E0DFF82481D8F8008028EA6F
:1024D0000008DFF81891C9F80080D1F8048008F4EA
:1024E0000038B8F5003F0ED1DFF8008108F104088C
:1024F000D8F8008048EA0008DFF8F09009F10409F4
:10250000C9F800800DE0DFF8E48008F10408D8F88D
:10251000008028EA0008DFF8D49009F10409C9F81E
:102520000080D1F8048008F48018B8F5801F0ED11F
:10253000DFF8B88008F10808D8F8008048EA0008F9
:10254000DFF8A89009F10809C9F800800DE0DFF86C
:102550009C8008F10808D8F8008028EA0008DFF815
:102560008C9009F10809C9F80080D1F8048008F4BA
:102570000018B8F5001F0ED1DFF8708008F10C08C4
:10258000D8F8008048EA0008DFF8609009F10C09EB
:10259000C9F800800DE0DFF8548008F10C08D8F885
:1025A000008028EA0008DFF8449009F10C09C9F816
:1025B00000805B1CD1F8008028FA03F8B8F1000F06
:1025C0007FF47CAEBDE8F8870000111000100240D7
:1025D00000080140000C01400010014000140140BF
:1025E00000180140001C01400800014000040140A7
:1025F000024693680B400BB1012000E000207047B9
:102600000AB1016101E00B040361704701480068F1
:10261000704700000400002003480068034909785F
:102620000844014908607047040000200C000020A5
:1026300010B50848006840F0100006490860032003
:1026400000F0A8F8002000F007F800F02BF80020B8
:1026500010BD00000020024070B504460E4800780E
:102660004FF47A71B1FBF0F00C490968B1FBF0F559
:10267000284600F00BFC08B1012070BD102C07D2D9
:1026800000222146501E00F047F80548046001E092
:102690000120F2E70020F0E70C00002010000020ED
:1026A0000800002008B500BF1148806940F0010013
:1026B0000F4988610846806900F00100009000BF62
:1026C00000BF00BF0846C06940F08050C86108469E
:1026D000C06900F08050009000BF00BF00BF0549F6
:1026E000486820F0E06040F00070486000BF08BD1E
:1026F000001002400000014001460846002809DBA6
:1027000000F01F0301229A4043099B0003F1E023DC
:10271000C3F8002100BF70472DE9F05F80460D46E9
:102720001646002701F03AF9074639462A4633464D
:1027300001F00700C0F1070ABAF1040F02D94FF007
:10274000040A01E0C0F1070AD14600F1040ABAF117
:10275000070F02D24FF0000A01E0A0F1030AD446AD
:102760004FF0010A0AFA09FAAAF1010A0AEA020A72
:102770000AFA0CFA4FF0010B0BFA0CFBABF1010B50
:102780000BEA030B4AEA0B042146404601F00EF91E
:10279000BDE8F09F00BF00F00702064B19684FF636
:1027A000FF031940044B0B4343EA0221014B19601C
:1027B00000BF70470CED00E00000FA0570B504465C
:1027C0000D460CB9012070BD5A48006800F00700A2
:1027D000A8420ED25748006820F007002843554908
:1027E00008600846006800F00700A84201D00120F8
:1027F000E9E7207800F0020002281DD1207800F0DF
:102800000400042805D14C48406840F4E0604A497F
:102810004860207800F00800082805D14648406844
:1028200040F46050444948604348406820F0F0005C
:10283000A168084340494860207800F0010078B35F
:102840006068012806D13C48006800F4003090B967
:102850000120B8E76068022806D13748006800F018
:10286000007040B90120AEE73348006800F0020074
:1028700008B90120A7E73048406820F003006168EC
:1028800008432D494860FFF7C1FE064609E0FFF7FF
:10289000BDFE801B41F28831884202D9032092E7B5
:1028A00007E02548406800F00C006168B0EB810F3C
:1028B000EDD12048006800F00700A8420ED91D485D
:1028C000006820F0070028431A490860084600689D
:1028D00000F00700A84201D0012074E7207800F042
:1028E0000400042807D11448406820F4E060E1683F
:1028F000084311494860207800F00800082808D1F2
:102900000D48406820F46050216940EAC1000A493E
:10291000486000F03FF808494968C1F30311074ACD
:10292000515CC8400649086006480068FFF794FEFD
:10293000002048E700200240001002406F6C0008B1
:1029400010000020080000200148006870470000C7
:102950001000002000B5FFF7F7FF04494968C1F3F4
:102960000221034A515CC84000BD00000010024033
:102970007F6C000800B5FFF7E7FF04494968C1F321
:10298000C221034A515CC84000BD00000010024053
:102990007F6C0008F0B585B00FF26C0C9CE8E0107D
:1029A00001A8A0E8E0101CA52D68009500210022D8
:1029B000002300240020194D696801F00C05F5B1D1
:1029C000042D02D0082D19D101E0154819E001AD00
:1029D000C1F38346AC5D01F4803555B10F4D6D6890
:1029E000C5F340451DF805200D4D6543B5FBF2F3D9
:1029F00002E00C4D04FB05F3184602E000BF084856
:102A000000BF00BF05B0F0BD0203040506070809BA
:102A10000A0B0C0D0E0F10100102000000100240F6
:102A200000127A0000093D00F8B504460CB90120F7
:102A3000F8BD207800F00100002878D0F848406800
:102A400000F00C0004280CD0F548406800F00C00A1
:102A5000082811D1F248406800F48030B0F5803F7A
:102A60000AD1EF48006800F4003000285FD06068A9
:102A700000285CD10120DBE700BF6068B0F5803F33
:102A800006D1E748006840F48030E549086028E056
:102A9000606858B9E248006820F48030E049086076
:102AA0000846006820F4802008601AE06068B0F5ED
:102AB000A02F0BD1DA48006840F48020D849086084
:102AC0000846006840F4803008600AE0D448006896
:102AD00020F48030D24908600846006820F4802045
:102AE000086000BF606888B1FFF790FD054606E00A
:102AF000FFF78CFD401B642801D9032098E7C848E4
:102B0000006800F400300028F2D010E0FFF77EFDEE
:102B1000054606E0FFF77AFD401B642801D9032033
:102B200086E7BF48006800F400300028F2D1207822
:102B300000F00200022857D1B948406800F00C00AC
:102B400050B1B748406800F00C00082818D1B448CC
:102B5000406800F4803098B9B148006800F0020085
:102B600020B12069012801D0012061E7AC4800684C
:102B700020F0F800616940EAC100A949086033E02B
:102B80002069E8B10120A7490860FFF73FFD05462D
:102B900006E0FFF73BFD401B022801D9032047E771
:102BA0009F48006800F002000028F2D09C480068AE
:102BB00020F0F800616940EAC1009949086013E01B
:102BC000002098490860FFF721FD054606E0FFF761
:102BD0001DFD401B022801D9032029E79048006809
:102BE00000F002000028F2D1207800F00800082848
:102BF0002DD1A069B8B101208B490860FFF706FD0F
:102C0000054606E0FFF702FD401B022801D903201C
:102C10000EE78348406A00F002000028F2D001204D
:102C200000F0D6FC13E000207F490860FFF7EEFCBF
:102C3000054606E0FFF7EAFC401B022801D9032005
:102C4000F6E67748406A00F002000028F2D12078CA
:102C500000F00400042873D100277148C06900F017
:102C6000805070B900BF6E48C06940F080506C4918
:102C7000C8610846C06900F08050009000BF00BFE6
:102C800001276A48006800F48070B0B9674800689E
:102C900040F4807065490860FFF7B8FC054606E01F
:102CA000FFF7B4FC401B642801D90320C0E65F484D
:102CB000006800F480700028F2D000BFE0680128AE
:102CC00006D15748006A40F001005549086227E0E4
:102CD000E06858B95248006A20F001005049086283
:102CE0000846006A20F00400086219E0E068052840
:102CF0000BD14B48006A40F004004949086208467D
:102D0000006A40F0010008620AE04548006A20F0CD
:102D10000100434908620846006A20F00400086286
:102D200000BFE068A0B1FFF771FC054609E0FFF7BE
:102D30006DFC401B41F28831884202D9032077E6BE
:102D400022E03748006A00F002000028EFD012E0CD
:102D5000FFF75CFC054608E0FFF758FC401B41F21A
:102D60008831884201D9032062E62D48006A00F0CC
:102D700002000028F0D1012F05D12948C06920F0B8
:102D800080502749C86100BFE069C8B32448406843
:102D900000F00C00082860D0E069022848D100202B
:102DA00020490866FFF732FC054606E0FFF72EFCD7
:102DB000401B022801D903203AE61948006800F0B8
:102DC00000700028F2D1206AB0F5803F07D1144886
:102DD000406820F40030A168084311494860D4E9F4
:102DE000080108430E49496821F4741108430C494D
:102DF000486001200B490866FFF708FC054607E01C
:102E00003DE0FFF703FC401B022801D903200FE639
:102E10000348006800F000700028F2D02FE00000A6
:102E20000010024000004242800442420070004014
:102E3000002014490866FFF7E9FB054606E0FFF7A6
:102E4000E5FB401B022801D90320F1E50E4800688C
:102E500000F000700028F2D111E0E069012800D1F3
:102E6000E6E50948466806F48031206A814204D1CB
:102E700006F47011606A814201D00120D8E500207B
:102E8000D6E50000000042420010024070B5044642
:102E90002546681EB0F1807F01D301200FE0681E37
:102EA0004FF0E02148610F214FF0FF3000F07EFD30
:102EB00000204FF0E021886107200861002070BDEC
:102EC00010B504460CB9012010BDA06900B100E0A6
:102ED00000BF94F83D0028B9002084F83C0020464B
:102EE00000F028F8242084F83D002068C06820F411
:102EF00000502168C860204600F0A6FC20680069E8
:102F000020F49040216808612068406920F02A0080
:102F1000216848612068C06840F400502168C8609A
:102F200000202064202084F83D0084F83E0000202A
:102F3000CAE7000010B586B0044600200290039056
:102F4000049005905A492068884238D100BF5948FA
:102F5000806940F48040574988610846806900F4E0
:102F60008040019000BF00BF00BF0846806940F06C
:102F7000040088610846806900F00400019000BFE9
:102F800000BF481502900220039001200490032006
:102F9000059002A94848FFF78BF94FF48060029032
:102FA0000020039002A94448FFF782F90022012182
:102FB0002520FFF7B1FB2520FFF79EFB75E03F4979
:102FC0002068884236D100BF3A48C06940F40030DA
:102FD0003849C8610846C06900F40030019000BF5C
:102FE00000BF00BF0846806940F0040088610846C1
:102FF000806900F00400019000BF00BF042002902F
:10300000022003900320059002A92B48FFF750F9F6
:103010000820029000200390049002A92648FFF7A0
:1030200047F9002201212620FFF776FB2620FFF733
:1030300063FB3AE022492068884236D100BF1D4830
:10304000C06940F480201B49C8610846C06900F48B
:103050008020019000BF00BF00BF0846806940F09B
:10306000080088610846806900F00800019000BFF0
:1030700000BF08150290022003900320059002A9CA
:103080001048FFF715F94FF40060029000200390FC
:10309000049002A90B48FFF70BF900220121272019
:1030A000FFF73AFB2720FFF727FB06B010BD000013
:1030B0000038014000100240000801400044004078
:1030C00000480040000C014000BFFEE7014649B146
:1030D0000548086005484860054888600548C8609C
:1030E000002070470120FCE7F9300008013100089A
:1030F000313100084531000810B502F0BFF810BDAD
:1031000070B5002602F006FA912002F095F902F05F
:103110008FFA012002F032F90446012002F02EF964
:10312000054602F045FA45EA0426304670BD000027
:1031300003480088401C80B20149088070470000A5
:103140001400002010B5044602F0E4F9902002F0CB
:1031500073F902F06DFA204602F06EF902F068FA97
:1031600002F026FA10BD000000B585B000200190E5
:1031700002900390049000BF4D48806940F0100019
:103180004B4988610846806900F01000009000BF3C
:1031900000BF00BF0846806940F0200088610846F3
:1031A000806900F02000009000BF00BF00BF08460B
:1031B000806940F0040088610846806900F00400DE
:1031C000009000BF00BF00BF0846806940F00800C3
:1031D00088610846806900F00800009000BF00BFC9
:1031E000002241F6B0413348FFF70AFA00224FF4BB
:1031F00086513148FFF704FAE02001900220029046
:103200000320049001A92D48FFF752F830200190C7
:10321000012002900390049001A92648FFF748F886
:103220004FF4805001900120029000200390012073
:10323000049001A92048FFF73BF84FF4604001904B
:10324000022002900320049001A91B48FFF730F8E8
:103250004FF4906001900120029000200390022022
:10326000049001A91348FFF723F84FF48050019010
:103270000120029003900320049001A90D48FFF75C
:1032800017F84FF4006001901120029001A909483D
:10329000FFF70EF8C020019011200290002003904B
:1032A0000120049001A90448FFF702F805B000BD11
:1032B0000010024000100140000C014000080140D5
:1032C00010B50B480B4908604FF4E130486000210D
:1032D00008488160C16001610C2141610021816168
:1032E000C161FFF7EDFD08B1FEF770FF10BD0000F2
:1032F000003801404000002010B50B480B49086021
:103300004FF4E1304860002108488160C1600161EC
:103310000C21416100218161C161FFF7D1FD08B13C
:10332000FEF754FF10BD0000004400408400002060
:1033300000BFFEE72DE9FC4781460D4614461E46B8
:10334000072D59D2DFE805F0580412202E3C4A0020
:10335000484603F043F907462CA03A460B462DA1F8
:10336000CDE900043046FCF7AFFF4BE0484603F0E0
:1033700035F907462AA03A460B4626A1CDE90004B6
:103380003046FCF7A1FF3DE0484603F027F9074629
:1033900025A03A460B461FA1CDE900043046FCF7B4
:1033A00093FF2FE0484603F019F9074620A03A465C
:1033B0000B4618A1CDE900043046FCF785FF21E05B
:1033C000484603F00BF907461AA03A460B4611A1EE
:1033D000CDE900043046FCF777FF13E0484603F0E0
:1033E000FDF8074615A03A460B460AA1CDE90004B0
:1033F0003046FCF769FF05E012A214A13046FCF745
:1034000063FF00BF00BFBDE8FC8700006D6F6C2F3D
:103410004C000000252E326625733B25753B0000CD
:103420006D6F6C2F6D4C00006D6F6C2F754C000034
:10343000672F4C006D672F4C000000006E672F4C0B
:10344000000000006572726F7200000025730000BA
:103450002DE9F04389B081460D4614461E4606AB61
:1034600007AA08A9484601F08FFE072C7ED2DFE8A4
:1034700004F07D04182C40546800284603F0AEF890
:1034800007463FA0CDE9027104909DF81800009016
:103490009DF81C309DF820203BA13046FCF714FF1E
:1034A0006AE0284603F09AF807463BA0CDE902718E
:1034B00004909DF8180000909DF81C309DF8202085
:1034C00031A13046FCF700FF56E0284603F086F8AD
:1034D000074633A0CDE9027104909DF818000090D2
:1034E0009DF81C309DF8202027A13046FCF7ECFE0B
:1034F00042E0284603F072F807462BA0CDE902719E
:1035000004909DF8180000909DF81C309DF8202034
:103510001DA13046FCF7D8FE2EE0284603F05EF8E9
:10352000074622A0CDE9027104909DF81800009092
:103530009DF81C309DF8202013A13046FCF7C4FEF6
:103540001AE0284603F04AF807461AA0CDE90271AE
:1035500004909DF8180000909DF81C309DF82020E4
:1035600009A13046FCF7B0FE06E0FFE713A216A162
:103570003046FCF7A9FE00BF00BF09B0BDE8F083EC
:103580006D6F6C2F4C0000002563256325633B2580
:103590002E326625733B00006D6F6C2F6D4C000062
:1035A0006D6F6C2F754C0000672F4C006D672F4CB2
:1035B000000000006E672F4C00000000756E6974FB
:1035C000206572726F7200002573000070477047AB
:1035D00008B508490968C9084FF47A72B1FBF2F1DD
:1035E0004143009100BF00BF00994A1E009200298C
:1035F000F9D108BD1000002070B504460D461646EE
:10360000EE2000F075F8B12000F072F8522000F0C2
:103610006FF8200A00F06CF8E0B200F069F8280AB0
:1036200000F066F8E8B200F063F8304600F081F888
:10363000FF2000F05DF8FC2000F05AF8FF2000F0B9
:1036400057F8FF2000F054F870BD70B504460D46E1
:10365000EE2000F04DF8B12000F04AF8532000F0C1
:1036600047F8200A00F044F8E0B200F041F8280AD8
:1036700000F03EF8E8B200F03BF8FF2000F038F828
:10368000FC2000F035F8FF2000F032F8FF2000F0B9
:103690002FF870BD70B504460D461646EE2000F0BA
:1036A00027F8B12000F024F8562000F021F8200A75
:1036B00000F01EF8E0B200F01BF8280A00F018F83D
:1036C000E8B200F015F8300A00F012F8F0B200F09D
:1036D0000FF8FF2000F00CF8FC2000F009F8FF20A4
:1036E00000F006F8FF2000F003F870BD70470000FE
:1036F00000BF0849096801F040010029F9D00549D7
:10370000091D086000BF0349096801F04001002954
:10371000F9D070470038014070B505460E460024C8
:1037200004E0285DFFF7E4FF601C84B2B442F8DBDC
:1037300070BD10B5044603E02078FFF7D9FF641C84
:1037400020780028F8D110BD10B50446EE20FFF710
:10375000CFFFB120FFF7CCFF0020FFF7C9FF200A01
:10376000FFF7C6FFE0B2FFF7C3FFFF20FFF7C0FF80
:10377000FC20FFF7BDFFFF20FFF7BAFFFF20FFF798
:10378000B7FF10BD70B504460D461646EE20FFF794
:10379000AFFFB120FFF7ACFF1020FFF7A9FF200A11
:1037A000FFF7A6FFE0B2FFF7A3FF280AFFF7A0FF8D
:1037B000E8B2FFF79DFF3046FFF7BBFFFF20FFF7A2
:1037C00097FFFC20FFF794FFFF20FFF791FFFF20FA
:1037D000FFF78EFF70BD10B5FEF71EFF10BD00B5E0
:1037E0008FB0282105A8FCF792FE14216846FCF74B
:1037F0008EFE012005900004069000200790012015
:10380000099002200C90C1030D914FF4E0110E912C
:1038100005A8FFF709F908B1FEF7D8FC0F200090C2
:1038200002200190002002904FF48060039000205D
:10383000049002216846FEF7C1FF08B1FEF7C6FCFE
:103840000FB000BD7047000070B5044621680969DB
:1038500021F44051E2681143226811612269A16894
:103860001143626941EA02052168C96841F20C62AC
:10387000914329432268D1602168496921F440714C
:10388000A2691143226851612D4A2168914202D1F7
:10389000FFF770F801E0FFF75DF800EBC00101EB06
:1038A000001162689200B1FBF2F100EBC00202EB82
:1038B000001263689B00B2FBF3F26423B2FBF3F2E5
:1038C00002EBC20303EB0212A1EB8201322202EBF4
:1038D00001116422B1FBF2F101F0F00100EBC00232
:1038E00002EB001263689B00B2FBF3F26423B2FBAD
:1038F000F3F201EB021200EBC00101EB001163686F
:103900009B00B1FBF3F100EBC00303EB001366680F
:10391000B600B3FBF6F36426B3FBF6F303EBC30682
:1039200006EB0313A1EB8301322303EB01116423A4
:10393000B1FBF3F101F00F0111442268916070BDF9
:103940000038014010B5074800684068C4B2064816
:103950000121426D2046904703480021426D2046D8
:10396000904710BD40000020BC0500207047704704
:1039700000BFFEE7490050EAC12018BF04204A0DED
:1039800018BF40F0010040F2FF72B2EB515F08BF78
:1039900040F00200012808BF052070470248006877
:1039A000C0F30220704700000CED00E010B50028C5
:1039B00004DB0A07130E054A135406E00A07140E27
:1039C000034A00F00F031B1FD45410BD00E400E0B5
:1039D00018ED00E040F2013200204FF0E04103F02A
:1039E000F8B80000024A0020110703F0F2B8000006
:1039F00001FDFFFF10B50446D1E9000100F002F817
:103A0000206010BDF8B504460D466A4601F068FA1C
:103A100000987E30009000281FDC002213462046CC
:103A2000294602F0D9FC18D0002140F608004FF0DA
:103A3000000006462046294602F088FC044640F66F
:103A4000080006EA00014FF0000034F0004004BF17
:103A50000220FCF745FE2046F8BD0098FF280DDB4C
:103A60000220FCF73DFE002213462046294602F0C4
:103A70007FFD8CBF04484FF0FF40F8BD204629462B
:103A8000BDE8F84002F062BC000080FF10B50446BB
:103A90000A46D4E90003194601F0B2FEC4E9000168
:103AA00010BD30380A2801D201207047002070472D
:103AB00000BF704700BF7047F0B58DB007460C4699
:103AC00015461E46282103A8FCF721FD6B4601AAD6
:103AD00002A9384601F058FB9DF808008DF80C004B
:103AE0009DF804008DF80D009DF800008DF80E0083
:103AF0003B208DF80F0004AB324629462046FFF7E5
:103B000019FC03AA06210520FFF776FD0DB0F0BDD4
:103B10007FB50546002431E01A4800EB0410007818
:103B200050BB601CC0B28DF8010001208DF8000070
:103B3000A8788DF80200A8680290E8680390E878F9
:103B40008DF8030028798DF804004FF4205101EB23
:103B500004100D4910220B6969469847094A02EB87
:103B600004114FF4205202EB0410074A536910224B
:103B70009847204604B070BD601CC4B2142CCBDB47
:103B8000FF20F7E7641000206405002030B58BB0FB
:103B900005460C46142106A8FCF7B9FC03AB04AAA1
:103BA00005A9284601F0F0FA9DF80C00CDE90004C3
:103BB0009DF810309DF8142005A106A8FCF784FBA1
:103BC00006AA06210220FFF717FD0BB030BD00004A
:103BD0002563256325633B25643B000030B58BB02E
:103BE00005460C46142106A8FCF791FC03AB04AA79
:103BF00005A9284601F0C8FA9DF80C00CDE900049B
:103C00009DF810309DF8142005A106A8FCF75CFB78
:103C100006AA02210320FFF7EFFC0BB030BD000025
:103C20002563256325633B25643B00001CB50446E2
:103C300000200090019040F2E73084420BDA2246E7
:103C400006A16846FCF740FB6A4603210846FFF7D9
:103C5000D3FC00201CBD0120FCE700004425753B7F
:103C600000000000F0B59BB00646002446E004EBDF
:103C7000840000EBC400234911F83000D8BB601C5D
:103C8000C0B28DF8050001208DF80400B0788DF8E1
:103C90000600F0788DF80700002507E0301D30F8A9
:103CA000151002A820F81510681CC5B2322DF5DBDE
:103CB00004EB840101EBC4014FF4006202EBC1008C
:103CC000114968220B6901A9984704EB840202EBB1
:103CD000C4020C4F07EBC20104EB840202EBC402E6
:103CE0004FF4006707EBC200074A53696822984700
:103CF00020461BB0F0BDFFE7601CC4B2142CB6DB3D
:103D0000FF20F6E7440800206405002070B58AB063
:103D100004460D46164628216846FCF7F8FB6B461C
:103D2000324629462046FFF793FB6A4604210620C7
:103D3000FFF762FC0AB070BD1CB50446002000907D
:103D4000019040F2E73084420BDA224606A1684631
:103D5000FCF7BAFA6A4602210A20FFF74DFC002060
:103D60001CBD0120FCE700004525753B000000005C
:103D70001CB5044620128DF80400E0B28DF8050051
:103D8000022001AB0022062100900A20FEF744FA2F
:103D90001CBD2DE9F84306460C460025A8466100E7
:103DA000481CFCF756FA074600BF0AE036F8180030
:103DB0000012785516F81810681C3954AD1C08F11B
:103DC00001086000A842F1DC6004000C3B460022C0
:103DD000062100900A20FEF71FFABDE8F8830000D4
:103DE00006480078142801DB01207047034800785A
:103DF000401CC0B201490870F7E700003B000020FA
:103E000006480078142801DB012070470348007839
:103E1000401CC0B201490870F7E700003C000020D8
:103E200010B52948FFF752F918B9274908688047A3
:103E300004E0264A582126A0FCF73AFA334801F05C
:103E400051FF18B931490868804704E01F4A5D21D5
:103E50002FA0FCF72DFA3D4800F04AFF20B11B4A85
:103E600060213BA0FCF724FA484800F077FF20B11E
:103E7000164A632146A0FCF71BFA544800F042FFA3
:103E800028B1124A662152A0FCF712FA11E04F49FC
:103E90000868804708E00D4A6A215CA0FCF708FA30
:103EA0004FF47A70FEF7F0F94849486880470028D7
:103EB000F1D1634801F0BCFE20B1044A6D2161A03C
:103EC000FCF7F6F910BD000024060020876C0008FE
:103ED0002E2E5C4170705C4170702E632D4C696EAB
:103EE000653A2025642D25732D4572726F723A4D07
:103EF0005331313030204F626A20526567697374E4
:103F00006572204661696C0A00000000BC05002053
:103F10002E2E5C4170705C4170702E632D4C696E6A
:103F2000653A2025642D25732D4572726F723A53C0
:103F3000637265656E204F626A20526567697374AB
:103F40006572204661696C0A0000000024000020B0
:103F50002E2E5C4170705C4170702E632D4C696E2A
:103F6000653A2025642D25732D4572726F723A448F
:103F70006574656374204F626A2052656769737463
:103F80006572204661696C0A00000000280000206C
:103F90002E2E5C4170705C4170702E632D4C696EEA
:103FA000653A2025642D25732D4572726F723A454E
:103FB00071756174696F6E204F626A20526567691E
:103FC00073746572204661696C0A00006405002004
:103FD0002E2E5C4170705C4170702E632D4C696EAA
:103FE000653A2025642D25732D4572726F723A4112
:103FF00054323443323536204F626A205265676945
:1040000073746572204661696C0A00002E2E5C4153
:1040100070705C4170702E632D4C696E653A20257E
:10402000642D25732D4572726F723A656570726FDB
:104030006D20636865636B206661696C65640A0066
:10404000140500202E2E5C4170705C4170702E6350
:104050002D4C696E653A2025642D25732D457272AD
:104060006F723A53617665204F626A2052656769C4
:1040700073746572204661696C0A00000025002493
:10408000FFF7CEFE1648016D002088471448016DE9
:10409000012088474FF4FA70FEF7F6F81EE010484A
:1040A00000224021C36D0F489847002802DD0D48CB
:1040B00000F022FD0A4801224021C36D0A489847BA
:1040C000002802DD084802F051F8FEF79FFA044686
:1040D000601B642802D92546FFF749FCDFE7000092
:1040E000BC050020340600207406002070B547F699
:1040F000FF75284600F029F80446552C01D1002010
:1041000070BD5521284600F05CF8FF2000F01DF836
:104110000446552C01D10020F2E70120F0E710B54C
:1041200001F0E8F810BD70B505460C46164606E0ED
:1041300028466A1C95B200F008F804F8010B301EFE
:10414000A6F101018EB2F3D170BD70B50446002610
:1041500001F006FAA02001F0A5F901F09BFA201267
:1041600001F0A0F901F096FA2546E11704EB116180
:104170000912A4EB0121C8B201F094F901F08AFA06
:1041800001F0EEF9A12001F08DF901F083FA002091
:1041900001F022F9064601F02BFA304670BD70B5E9
:1041A00005460C46164606E02178284600F009F838
:1041B000681C85B2641C301EA6F101018EB2F3D1D9
:1041C00070BD70B504460E4601F0CAF9A02001F09A
:1041D00069F901F05FFA201201F064F901F05AFA6E
:1041E0002546E11704EB11610912A4EB0121C8B2C5
:1041F00001F058F901F04EFA304601F053F901F0A0
:1042000049FA01F0F5F90A20FEF73EF870BD30B525
:1042100083B00446FCF75FFA05460020CDE90000B4
:10422000024621466846FCF72BFD2846FCF758FA63
:10423000DDE9000103B030BD30B59BB00025164963
:10424000C8688047054600240AE0E1B21248026AC5
:1042500001A890479DF80600104A11698847641C20
:10426000AC42F2DB012D14DD142D12DA0A480021D4
:10427000026A01A89047002407E002AB33F814104B
:10428000E0B2064B9A699047641C9DF80700A04273
:10429000F3DC1BB030BD000014050020BC0500207D
:1042A00070B504460D46082C0ED2DFE804F00D046C
:1042B000050607080B0C0EE00DE00CE00BE0FFF725
:1042C000BBFF08E007E006E0044A40F2C91104A081
:1042D000FBF7EEFF00BF00BF70BD0000186D0008C7
:1042E0002E2E5C4170705C4170702E632D4C696E97
:1042F000653A2025642D25732D4572726F723A70D0
:10430000617261206572726F720A000070B50446B6
:104310000D460F2C11D1012008490870084A126877
:104320001078084A116B8847054B1B68D96E044BFF
:104330001B68986E034B5A6B904770BD300000208D
:1043400028000020BC05002070B59AB004460E4637
:104350000025022C1CD16948006890F86C0090B9C7
:1043600001206649096881F86C00FFF749FD63493F
:10437000096881F86D00614A126892F86D00604A20
:1043800051688847B7E05E48416E10208847B2E028
:10439000032C1AD15948006890F86C0020B958488D
:1043A000416E0C208847A6E05448006890F86C00E5
:1043B000012804D15248416E112088479BE0022019
:1043C0004E49096881F86C0095E0042C4CD101201D
:1043D00000F05CFD4FF47A7000F076FC474800680E
:1043E00090F86C0020B94648416E0C20884737E0B1
:1043F00044494868804705464048006890F86C008A
:1044000001280FD102203D49096881F86C003B4822
:1044100000680581394800680189394882680020B0
:1044200090471DE03548006808303749097820F882
:104430001150324800680830334B1B7830F81310A5
:104440002F4882683048007890472F480078401CF9
:104450002D490870084600782849096881F86F00DE
:10446000002000F013FD46E0052C34D123480068FD
:1044700090F86C0050B32148006890F86D008DF8FA
:1044800002001E48006890F86F008DF803000020BD
:1044900008E01A490968083131F8102001A921F80B
:1044A0001020401C9DF803108142F2DC174801697E
:1044B00068468847FF2804D01148416E122088477B
:1044C00008E00F48416E1320884703E00C48416E16
:1044D000152088470FE0012C0DD101200A490870F2
:1044E00000200649096881F86C00642103480068CF
:1044F0000830FBF7EAFF1AB070BD0000240000206E
:10450000BC050020240600203800002014050020EF
:10451000704770472DE9FE4304468846032C1FD19F
:104520001E49486880470646304602F0BFF91C49DC
:104530001C4A127841F822001B48006842781B4848
:10454000184B1B7850F8231019483346856A1548D4
:104550000078A84713480078401C124908701AE0F8
:10456000042C18D10F480078002814DD0D4800787D
:104570000B4B0E4A01A9009002A800F031FAFFF798
:104580002FFC07460A48016A384688470848426AAD
:10459000DDE901109047BDE8FE83000024060020FD
:1045A0007C0700202D00002028000020B4060020F9
:1045B000BC0500202DE9F04704468846032C2DD188
:1045C0001748007801281FD11649486880470746D8
:1045D000384602F06BF9814613480068816E484600
:1045E00002F078F9064610480068C16E304602F0C5
:1045F00021F805460C48006842780C482946836B30
:104600000B480078984709E00A4A40F249210AA07D
:10461000FBF74EFE0548416E0B208847BDE8F0874A
:10462000300000202406002028000020BC050020C7
:1046300031000020266D00082E2E5C4170705C4118
:1046400070702E632D4C696E653A25642D25732D8F
:10465000496E666F3A6E6F2073656C656374206592
:1046600071756174696F6E0A0000000070477047D1
:1046700070B504460E460025142C11D101200949BD
:1046800008700948007838B10848C16A0020884796
:1046900000200549087003E00448C16A01208847EA
:1046A00070BD00002C0000202E000020BC05002062
:1046B00001460020142908DA01EB810202EBC10255
:1046C000024B13F8322002B1012070474408002049
:1046D00010B506210220FEF7B8FF10BD70B50446E4
:1046E0000D4616460B2C39D2DFE804F038060B10C5
:1046F000151A1F29242E330031462846FFF7D0FD16
:1047000033E031462846FFF71FFE2EE031462846AB
:10471000FFF7FEFE29E031462846FFF7FAFE24E0C7
:1047200031462846FFF7F6FE1FE031462846FFF7E0
:1047300041FF1AE031462846FFF799FF15E0314660
:104740002846FFF793FF10E031462846FFF790FF19
:104750000BE031462846FFF7D9FD06E0044A40F257
:10476000591104A0FBF7A4FD00BF00BF70BD0000FD
:10477000BD6C00082E2E5C4170705C4170702E6321
:104780002D4C696E653A2025642D25732D45727276
:104790006F723A53637265656E206964206E756D41
:1047A000206572726F720A0070B504460D46164697
:1047B000034A4FF4BD7103A0FBF77AFD70BD000002
:1047C000016D00082E2E5C4170705C4170702E638C
:1047D0002D4C696E653A25642D25732D496E666FE3
:1047E0003A67726170682066756E630A00000000A7
:1047F00070B504460D461646034A4FF4BB7103A03C
:10480000FBF756FD70BD0000E96C00082E2E5C41E0
:1048100070705C4170702E632D4C696E653A256432
:104820002D25732D496E666F3A736C69646572202D
:1048300066756E630A00000070B504460D461646A4
:10484000034A40F26B1103A0FBF732FD70BD00007C
:10485000D26C00082E2E5C4170705C4170702E632B
:104860002D4C696E653A25642D25732D496E666F52
:104870003A7461626C652066756E630A0000000020
:104880007047704770477047F8B505460E461446A6
:104890001F4600200090032D2DD1032E2BD1DFB118
:1048A00000BF05E0215C3039C9B20DF80010401C92
:1048B0000428F7DB9DF80100642148439DF80210AD
:1048C00001EB810100EB41009DF8031008441F49F2
:1048D000096881F86D0038E060781C49096881F842
:1048E0006E001A48006890F86E2019480321436949
:1048F0000846984729E00A2D27D1022E25D1D7B1A5
:10490000002005E0215C3039C9B20DF80010401CD0
:104910000428F7DB9DF80100642148439DF802104C
:1049200001EB810100EB41009DF8031008440949A7
:104930000968087009E06078074908700448C36C8A
:104940000846027802210A209847F8BD240000207A
:10495000BC050020280000202F0000202DE9F04198
:1049600004460D469046092C1FD1152D1DD1164821
:104970000078012826D10020134908704046FFF72F
:1049800046FC064601F0E2FC1049114A127841F853
:104990002200104B1B6859780C4B0D4E367853F89B
:1049A00026000D4BDA6990470CE0092C0AD1162D30
:1049B00008D1002009490870404601F0F5F8054982
:1049C00009684870BDE8F0812C000020B406002082
:1049D0002D00002028000020BC0500202E00002013
:1049E0002DE9FF5F06460D46174698460024A1466E
:1049F000A246A3460020039000BF06E058F824100A
:104A000057F8240000F062FF641C0A2CF6DB002437
:104A10000FE0384850F83410484601F00BFE81464C
:104A2000344800EBC4004168504601F003FE824662
:104A3000641C3048D0F82003A042EADC2D49D1F8AC
:104A4000200301F01BFF01460290484601F054FE8E
:104A500081462849D1F8200301F010FF0146029059
:104A6000504601F049FE824600242DE0214901EB29
:104A7000C4014868514602F003F81E49019051F8FC
:104A80003400494601F0FCFF0090019901F022FF3B
:104A90005946029001F0CEFD8346164951F8340084
:104AA000494601F0EDFF1349019051F834004946A1
:104AB00001F0E6FF0090019901F00CFF02900399CC
:104AC00001F0B8FD0390641C0A48D0F82003A0420E
:104AD000CCDC5846039901F00FFE2860494628684F
:104AE00001F0F8FE5146029001F0C0FF3060BDE8D1
:104AF000FF9F0000841200202DE9F04104466578F4
:104B0000A678E77894F80480332D16D004DC112DB4
:104B100007D0222D23D10AE0442D14D0552D1ED1CB
:104B200017E0424639463046FFF7D8FD1EE04246C0
:104B300039463046FFF7A4FE18E042463946304673
:104B4000FFF77AFE12E0424639463046FFF72CFE68
:104B50000CE0424639463046FFF74AFE06E0054A79
:104B600040F2411104A0FBF7A3FB00BF00BFBDE86A
:104B7000F0810000A66C00082E2E5C4170705C4134
:104B800070702E632D4C696E653A2025642D257357
:104B90002D4572726F723A637573746F6D20636F17
:104BA0006E74726F6C2074797065206572726F72AA
:104BB0000A00000070B5064600250EE0194800EB1B
:104BC00005108078B04206D1164800EB05104078F9
:104BD000401EC4B203E0681CC5B2142DEEDB00BF5A
:104BE000104800EB04100021016041608160C16049
:104BF000002038607860B860F8604FF4205101EB15
:104C00000410094910220B6939469847054A02EBFE
:104C100004114FF4205202EB0410034A536910228E
:104C2000984770BD641000206405002070B50646EA
:104C3000002415E004EB840000EBC400204901EBE4
:104C4000C0008078B04209D104EB840000EBC400BE
:104C500001EBC0004078401EC5B203E0601CC4B246
:104C6000142CE7DB00BF04EB840101EBC401144A00
:104C700002EBC1006821FBF728FC05EB850101EB85
:104C8000C5014FF4006202EBC1000E4968220B69B6
:104C90003946984705EB850202EBC502DFF820C0D4
:104CA0000CEBC20105EB850202EBC5024FF4006C70
:104CB0000CEBC200034A53696822984770BD00009C
:104CC000440800206405002030B504464FF47A7093
:104CD00004FB00F5284600F001F830BDC0EBC0022F
:104CE000002101E000BF491C9142FBD37047000046
:104CF000014619B102480860002070470120FCE716
:104D0000A4110020014669B10748086007484860BF
:104D1000074888600748C860074808610748486135
:104D2000002070470120FCE71F410008ED4000080B
:104D30004B410008C34100089F410008274100087B
:104D400001460020142905DA034A02EB0112127809
:104D500002B101207047000064100020014619B123
:104D600002480860002070470120FCE71412002070
:104D70000020104A5278012A00D00120002116E0BC
:104D80000C4A02EB01125278142A00DB0120094A76
:104D900002EB01121278012A00DD0120054A02EB24
:104DA00001121279322A00DD01204A1CD1B21429E5
:104DB000E6DB70476410002010B5002409E00D48C0
:104DC00000EB04100021016041608160C160601C43
:104DD00084B2142CF3DB08484FF4A0720549036930
:104DE0005001984704484FF4A072024943695001AA
:104DF000984710BD641000206405002010B50648D7
:104E00004FF4A0720549436950019847FFF7B0FF7E
:104E100008B1FFF7D1FF10BD640500206410002029
:104E200010B507484FF40262064943694FF4006029
:104E3000984700F053F908B100F080F910BD000068
:104E40006405002044080020014641B1054800687F
:104E500018B904480160002070470120FCE70220D7
:104E6000FAE700003400002010B504462CB10122FE
:104E700091020548FDF7C4FB05E000224FF4806174
:104E80000148FDF7BDFB10BD0010014010B5044600
:104E900024B1012004490968884703E00020024941
:104EA0000968884710BD00003400002000EBC002F4
:104EB000D200910800BF00BF0A1EA1F10101FAD182
:104EC0007047000000BF054A126802F04002002A45
:104ED000F9D0C2B2014B1B1D1A607047004400405C
:104EE00010B5144600222260114A21F0004393427B
:104EF000A8BF10BD53EA000208BF10BDB3F5801F64
:104F0000A8BF226807DA362201F063FE6FF035028F
:104F100021F000432260DFF81CC06FF31E510CEB40
:104F200023531A4441F0FF5141F00051226010BD5B
:104F30000000F07F02FCFFFF0020002108E0064A8D
:104F400002EB011212780AB1421CD0B24A1CD1B253
:104F50001429F4DB7047000064100020142900DBE2
:104F60007047124A02EB0112527842700F4A02EB6C
:104F70000112127802700D4A02EB011292788270CF
:104F80000A4A02EB011292688260084A02EB01129F
:104F9000D268C260054A02EB0112D278C270034A9D
:104FA00002EB01121279027100BFD9E764100020F0
:104FB00001460020142903DA024A02EB011250785C
:104FC0007047000064100020002000210BE001EB7E
:104FD000810202EBC102054B13F832200AB1421CD8
:104FE000D0B24A1CD1B21429F1DB7047440800202A
:104FF00010B5142900DB10BD01EB810303EBC103E5
:10500000184C04EBC3035B78437001EB810303EBA3
:10501000C10314F83330037001EB810303EBC103C8
:1050200004EBC3039B78837001EB810303EBC103A3
:1050300004EBC303DB78C37000220EE001EB8103B5
:1050400003EBC103074C04EBC3031B1D33F81240F1
:10505000031D23F81240531CDAB2322AEEDB00BFE4
:10506000C9E700004408002001460020142907DA9F
:1050700001EB810202EBC102024B03EBC20250784A
:10508000704700004408002010B5044624B1012CEC
:1050900011D0022C1FD116E015210920FDF797F839
:1050A0006420FDF7F1F816210920FDF790F80A2099
:1050B000FDF7EAF810E015210920FDF788F80A202D
:1050C000FDF7E2F808E016210920FDF780F80A2034
:1050D000FDF7DAF800E000BF00BF10BD0020164A5F
:1050E0005278012A00D00120002121E001EB810249
:1050F00002EBC102104B03EBC2025278142A00DB10
:10510000012001EB810202EBC1020B4B13F83220AC
:10511000012A00DD012001EB810202EBC102064BF6
:1051200003EBC202D278322A00DD01204A1CD1B240
:105130001429DBDB704700004408002010B5002470
:105140000BE004EB840101EBC4010D4A02EBC1004A
:105150006821FBF7BAF9601C84B2142CF1DB094812
:105160004FF40262064903694FF40060984705480E
:105170004FF40262024943694FF40060984710BD42
:10518000440800206405002070B5642490FBF4F40A
:1051900030340C70642490FBF4F504FB15040A25EC
:1051A00094FBF5F430341470642490FBF4F504FBA4
:1051B00015040A2594FBF5F605FB164430341C70E3
:1051C00070BD000010B500BF002240211048FDF75F
:1051D00017FA00BF00F048F800BF012220210C4858
:1051E000FDF70EFA00BF00F03FF800BF00222021BB
:1051F0000748FDF705FA00BF00F036F800BF0122AE
:1052000040210348FDF7FCF900BF00F02DF810BD68
:105210000008014010B500BF00224FF400611148A2
:10522000FDF7EEF900BF00F024F800BF01221103E2
:105230000C48FDF7E5F900BF00F01BF800BF0022A5
:105240004FF480510748FDF7DBF900BF00F011F87B
:1052500000BF0122D1020348FDF7D2F900BF00F0E0
:1052600008F810BD0010014010B50220FFF71EFE27
:1052700010BD10B50220FFF731FD10BD00B585B09F
:1052800000BF00BF1948806940F0040017498861D9
:105290000846806900F00400009000BF00BF00BF16
:1052A00000BF00BF0846806940F0040088610846DE
:1052B000806900F00400009000BF00BF00BF4020E4
:1052C00001900120029003900320049001A9084856
:1052D000FCF7EEFF802001901120029001A9044804
:1052E000FCF7E6FF00F064F905B000BD00100240D5
:1052F000000C014010B500F07BF910BD10B500BFE7
:10530000012240210C48FDF77BF900BFFFF7ACFFFD
:1053100000BF012220210848FDF772F900BFFFF706
:10532000A3FF00BF002220210348FDF769F900BF59
:10533000FFF79AFF10BD00000008014010B500BF44
:105340000122D1020C48FDF75BF900BFFFF791FF86
:1053500000BF012211030848FDF752F900BFFFF713
:1053600088FF00BF00224FF480510348FDF748F941
:1053700000BFFFF77EFF10BD0010014070B505466D
:10538000002400261CE06006040E00BF012220213C
:105390001048FDF735F900BFFFF766FF40210D48C3
:1053A000FDF726F908B1601CC4B200BF002220211D
:1053B0000848FDF725F900BFFFF756FF701CC6B27D
:1053C000082EE0DB15B9FFF799FF01E0FFF7FAFEC1
:1053D000204670BD0008014070B505460024002637
:1053E0001EE06006040E00BF012211031148FDF704
:1053F00007F900BFFFF73DFF4FF400610D48FDF7CF
:10540000F7F808B1601CC4B200BF00224FF480510D
:105410000848FDF7F5F800BFFFF72BFF701CC6B278
:10542000082EDEDB15B9FFF789FF01E0FFF7F2FE7A
:10543000204670BD0010014070B50446002524E0F0
:1054400000BFE00928B1012240211548FDF7D8F836
:1054500004E0002240211248FDF7D2F800BFFFF718
:1054600003FF00BF012220210D48FDF7C9F800BF4E
:10547000FFF7FAFE00BF002220210948FDF7C0F81F
:1054800000BF6006040E681CC5B2082DD8DB00BF43
:10549000012240210248FDF7B3F800BF70BD0000B3
:1054A0000008014070B50446002526E000BFE00971
:1054B00028B10122D1021648FDF7A2F805E000222A
:1054C0004FF400611248FDF79BF800BFFFF7D1FED3
:1054D00000BF012211030E48FDF792F800BFFFF74D
:1054E000C8FE00BF00224FF480510948FDF788F83C
:1054F00000BF6006040E681CC5B2082DD6DB00BFD5
:105500000122D1020248FDF77BF800BF70BD000008
:105510000010014010B500BF012240210F48FDF7E7
:105520006FF800BF00BF012220210C48FDF768F88A
:1055300000BFFFF799FE00BF002240210748FDF79A
:105540005FF800BFFFF790FE00BF00222021034854
:10555000FDF756F800BFFFF787FE10BD00080140B9
:1055600010B500BF0122D1021048FDF749F800BF75
:1055700000BF012211030D48FDF742F800BFFFF7FD
:1055800078FE00BF00224FF400610848FDF738F8AC
:1055900000BFFFF76EFE00BF00224FF480510348AA
:1055A000FDF72EF800BFFFF764FE10BD00100140AC
:1055B00010B500BF002240210C48FDF721F800BFC4
:1055C000FFF752FE00BF012220210848FDF718F81E
:1055D00000BFFFF749FE00BF012240210348FDF74D
:1055E0000FF800BFFFF740FE10BD000000080140AB
:1055F00010B500BF00224FF400610C48FDF700F821
:1056000000BFFFF736FE00BF012211030748FCF779
:10561000F7FF00BFFFF72DFE00BF0122D1020348B4
:10562000FCF7EEFF00BFFFF724FE10BD00100140A5
:1056300070B50024002500BF012240211448FCF76A
:10564000DFFF00BFFFF710FE00BF0122202110483E
:10565000FCF7D6FF00BFFFF707FE07E0601CC4B2EF
:10566000FA2C03DDFFF7A4FF012505E040210848DF
:10567000FCF7BEFF0028F1D100BF00BF00222021AF
:105680000348FCF7BDFF00BFFFF7EEFD284670BDE5
:105690000008014070B50024002500BF0122D1029E
:1056A0001548FCF7ADFF00BFFFF7E3FD00BF012287
:1056B00011031148FCF7A4FF00BFFFF7DAFD07E074
:1056C000601CC4B2FA2C03DDFFF792FF012506E04F
:1056D0004FF400610848FCF78BFF0028F0D100BFB1
:1056E00000BF00224FF480510348FCF789FF00BF40
:1056F000FFF7BFFD284670BD001001402DE9F843BB
:1057000080460C461546072C53D2DFE804F05204BD
:10571000111E2B384500404600F060FF064629A0C8
:1057200032460B4629A100902846FAF7CDFD46E007
:10573000404600F053FF064626A032460B4623A102
:1057400000902846FAF7C0FD39E0404600F046FFD9
:10575000064622A032460B461CA100902846FAF7C6
:10576000B3FD2CE0404600F039FF06461DA032464E
:105770000B4616A100902846FAF7A6FD1FE040460A
:1057800000F02CFF064618A032460B460FA10090F1
:105790002846FAF799FD12E0404600F01FFF064642
:1057A00013A032460B4609A100902846FAF78CFD5B
:1057B00005E011A206A12846FAF786FD00BF00BF4A
:1057C000BDE8F8836D6F6C2F4C000000252E32660B
:1057D000257300006D6F6C2F6D4C00006D6F6C2F8A
:1057E000754C0000672F4C006D672F4C00000000C7
:1057F0006E672F4C000000006572726F720000002F
:105800002DE9F04106460C4640F2FF75174635EA91
:1058100014502BD000221346304600F0DDFD25D079
:105820003A463046214601F0D4F906460C4635EAA0
:10583000145010D000221346304600F0CDFD15D193
:105840000220FAF74DFFFEF7CDF80A46214662F333
:105850001E01BDE8F0810220FAF742FFFEF7BAF818
:105860000A46214662F31E01BDE8F081304621461A
:10587000BDE8F081FCF7DCFEFDF7B1FFFDF774FC3D
:10588000FDF71EFDFDF738FD0C48FFF7DDFA28B9DE
:105890000B4A82210B48FAF70BFD04E0084A8421E9
:1058A0000948FAF705FD012000F0E2FC022000F0B3
:1058B000DFFC01E0FEF7E2FBFCE70000694E0008B8
:1058C0006A6C00081C6E0008C86D000830B50246FE
:1058D00000201B4BD3F82033642B13DA184BD3F87A
:1058E0002033174C44F833202346D3F82043D3F811
:1058F00020335B1C124DC5F820332B4603EBC40349
:10590000596030BD00200DE00D4C431C54F833307D
:1059100044F83030431C04EBC3035B6804EBC00461
:105920006360401C6328EFDB054BC3F81823C3F802
:105930001C136423024CC4F8203300BFE1E70000CD
:105940008412002040B10021084A51801180084A89
:105950001180084A116007E00021074A5180118038
:10596000064A1180064A118070470000100300208B
:10597000200000201C0000200C0100201A00002044
:105980001800002010B5034673B10F48008800F5D9
:1059900000700D4A5288811AC81701EBD05040128E
:1059A000A1EB402080B210BD0848008800F50070CF
:1059B000064C6488021BD01702EBD0504012A2EBB9
:1059C000402080B2EFE70000100300200C0100200F
:1059D00010B50A46B2B117494988164B1B8899423F
:1059E00026D014494B88091DC95C0170114B5B8896
:1059F000591CCB1701EBD3535B12A1EB43230D4C86
:105A0000638015E00C4949880B4B1B8899420FD0E5
:105A100009494B88091DC95C0170074B5B88591CFB
:105A2000CB1701EBD3535B12A1EB4323024C6380F2
:105A300010BD0000100300200C01002010B50A4624
:105A4000A2B1154C2488611CCC1701EBD45464120C
:105A5000A1EB4424A3B210494988994205D00E49CC
:105A60000C88091D0855091F0B8014E00B4C248875
:105A7000611CCC1701EBD4546412A1EB4424A3B2F3
:105A800006494988994205D004490C88091D0855E2
:105A9000091F0B8000BF10BD100300200C01002067
:105AA000F8B504460D461646002700200090002E4B
:105AB00038D030E001216846FFF78AFF3648008879
:105AC00020B99DF80000EE2800D024E0324800887C
:105AD000A84208DA9DF800102F4802880088401C70
